:020000040800F2
:1000000000000120991000081110000813100008CA
:100010001510000817100008191000080000000053
:100020000000000000000000000000001B1000089D
:100030001D100008000000001F100008211000081B
:10004000E9100008E9100008E9100008E9100008AC
:10005000E9100008E9100008E9100008E91000089C
:10006000E9100008E9100008E9100008E91000088C
:10007000E9100008E9100008E9100008E91000087C
:10008000E9100008E9100008E9100008E91000086C
:10009000E9100008E9100008E9100008E91000085C
:1000A000E9100008E9100008E9100008E91000084C
:1000B000E9100008E9100008E9100008E91000083C
:1000C000E9100008E9100008E9100008E91000082C
:1000D000E9100008E9100008E9100008E91000081C
:1000E000E9100008E9100008E9100008E91000080C
:1000F000E9100008E9100008E9100008E9100008FC
:10010000E91000080000000000000000E9100008ED
:10011000E9100008E9100008E9100008E9100008DB
:10012000E9100008E9100008E9100008E9100008CB
:10013000E9100008E91000080000000000000000BD
:10014000E9100008E9100008E910000800000000AC
:10015000000000000000000000000000000000009F
:10016000E9100008E9100008E9100008E91000088B
:10017000E9100008E9100008E9100008E91000087B
:10018000E9100008E910000800000000000000006D
:04019000E91000086A
:1001940010B5054C237833B9044B13B10448AFF3BD
:1001A40000800123237010BD040000200000000023
:1001B4003411000808B5034B1BB103490348AFF3DE
:1001C400008008BD00000000080000203411000871
:1001D40010B5084B044618684FF47A73B0FBF3F07B
:1001E40000F070F8002221464FF0FF3000F036F89E
:1001F400002010BD00000020074A08B5136843F032
:1002040010031360032000F017F80020FFF7E0FF4D
:1002140000F0BEFE002008BD00200240024A136820
:1002240001331360704700BF20000020014B1868A1
:10023400704700BF20000020074AD36823F4E0631E
:100244001B041B0C43F0BF63000243F4003300F4AF
:10025400E0600343D360704700ED00E0174B30B516
:10026400DC68C4F30224C4F10703251D042B28BF52
:100274000423062D4FF0010505FA03F303F1FF33C0
:100284008CBF033C00241940A14005FA04F4013C4E
:100294002240002842EA01024FEA0212AFBF00F1F5
:1002A400604000F00F00064BD2B2A5BF00F56140DC
:1002B400D2B21A5480F8002330BD00BF00ED00E034
:1002C40014ED00E00138B0F1807F0AD2064B074AF2
:1002D4005860F02182F823100020072298601A60E9
:1002E40070470120704700BF10E000E000ED00E01F
:1002F400044B1A6804280CBF42F0040222F00402E2
:100304001A60704710E000E0704708B5FFF7FCFF83
:1003140008BD00002DE9F74FD1F80080DFF8909177
:10032400614A002338FA03F402D103B0BDE8F08F28
:100334004FF0010E0EFA03FE18EA0E0600F0A68036
:100344004C6824F01007022F16D14FEAD30A00EBB1
:100354008A0A03F0070BDAF820504FEA8B0B4FF0B0
:100364000F0C0CFA0BFC25EA0C0C0D6905FA0BF5C5
:1003740045EA0C05CAF820504FEA430A0325D0F891
:1003840000B005FA0AF5ED4304F0030C0BEA050B83
:100394000CFA0AFC013F4CEA0B0C012FC0F800C018
:1003A40011D8876807EA050BCF6807FA0AFC4CEAFC
:1003B4000B078760476827EA0E0EC4F300179F40B7
:1003C40047EA0E074760C7683D408F6807FA0AF797
:1003D4003D43C560E50059D5D9F8185045F00105ED
:1003E400C9F81850D9F8185023F0030707F18047CB
:1003F40005F0010507F58037019503F0030C019D15
:10040400BD684FEA8C0C4FF00F0E0EFA0CFEB0F1E3
:10041400904F25EA0E0E3BD0244DA8423AD005F564
:100424008065A84238D005F58065A84236D005F528
:100434008065A84234D005F58065A84232D005F520
:100444008065A84214BF0725062505FA0CF545EA80
:100454000E05BD601568F74314F4803F0CBF3D40A2
:1004640035431560556814F4003F0CBF3D403543D7
:100474005560956814F4801F0CBF3D40354395606A
:10048400D568A40254BF3D403543D560013349E7E4
:100494000025DAE70125D8E70225D6E70325D4E7C6
:1004A4000425D2E70525D0E70004014000040048F4
:1004B400001002400AB181617047816270470000F8
:1004C40003682DE9F347DF07054611D42B689E071F
:1004D40000F18B802B681C0700F1FE802B68580705
:1004E40000F14781AA69002A40F0DD81002024E060
:1004F400BD4C636803F00C03042B0AD0636803F05B
:100504000C03082B1CD1636803F4C033B3F5803F9C
:1005140016D14FF4003393FAA3F2216893FAA3F3AC
:10052400B3FA83F303F01F03012202FA03F30B422D
:10053400CCD06B68002BC9D1012002B0BDE8F08794
:100544006B68B3F5803F1ED1236843F48033236086
:10055400FFF76CFE4FF400368046012796FAA6F3A7
:10056400226896FAA6F3B3FA83F303F01F0307FA9B
:1005740003F31342AAD1FFF759FEA0EB0800642845
:10058400ECD90320D9E70BBB236823F48033236021
:10059400236823F480232360FFF748FE4FF40036DA
:1005A4008046012796FAA6F3226896FAA6F3B3FAD0
:1005B40083F303F01F0307FA03F3134286D0FFF714
:1005C40035FEA0EB08006428ECD9DAE7B3F5A02FD8
:1005D400236803D143F480232360B5E723F48033F5
:1005E4002360236823F48023B1E77F4C636813F00E
:1005F4000C0F0AD0636803F00C03082B24D1636842
:1006040003F4C033B3F5004F1ED1022393FAA3F2CF
:10061400216893FAA3F3B3FA83F303F01F030122CF
:1006240002FA03F30B4202D0EB68934284D12168AF
:10063400F82393FAA3F3B3FA83F22B69934021F0DE
:10064400F8021343236045E7EA6801260AB396FAE1
:10065400A6F3B3FA83F303F1845303F584139B00E5
:1006640002271E60FFF7E2FD804697FAA7F322688F
:1006740097FAA7F3B3FA83F303F01F0306FA03F31D
:100684001342D4D1FFF7D2FDA0EB08000228ECD925
:1006940077E796FAA6F3B3FA83F303F1845303F5E9
:1006A40084139B0002271A60FFF7C0FD804697FA67
:1006B400A7F3226897FAA7F3B3FA83F303F01F03AF
:1006C40006FA03F313423FF405AFFFF7AFFDA0EBC7
:1006D40008000228EBD954E76A69434E43490124D0
:1006E4001AB394FAA4F3B3FA83F30B449B000227DE
:1006F4001C60FFF79BFD804697FAA7F397FAA7F3D0
:1007040097FAA7F3726A97FAA7F3B3FA83F303F09D
:100714001F0304FA03F313427FF4E0AEFFF786FDF0
:10072400A0EB08000228E7D92BE794FAA4F3B3FA64
:1007340083F30B449B0002271A60FFF777FD804682
:1007440097FAA7F397FAA7F397FAA7F3726A97FAB7
:10075400A7F3B3FA83F303F01F0304FA03F313427A
:100764003FF4BCAEFFF762FDA0EB08000228E7D916
:1007740007E71D4CE369D90034D4E36943F080539F
:10078400E361E36903F080530193019B0126184F51
:100794003B68DA052ED5AB68012B3CD1236A43F0C4
:1007A40001032362FFF742FD02278246B9464FF058
:1007B400010897FAA7F397FAA7F3002B6BD0226AE4
:1007C40099FAA9F3B3FA83F303F01F0308FA03F3C6
:1007D400134257D0002E3FF485AEE36923F08053D3
:1007E400E3617FE60026D2E70010024020819010EA
:1007F400007000403B6843F480733B60FFF716FDD4
:1008040080463B68DB05C6D4FFF710FDA0EB08006B
:100814006428F6D9B5E63BBB236A23F001032362BF
:10082400236A23F004032362FFF700FD02278246B4
:10083400B9464FF0010897FAA7F397FAA7F373B3F1
:10084400226A99FAA9F3B3FA83F303F01F0308FAAF
:1008540003F31342BED0FFF7E9FC41F28833A0EB67
:100864000A009842E7D98CE6052B236A03D143F0AA
:100874000403236292E723F001032362236A23F033
:1008840004038EE7FFF7D2FC41F28833A0EB0A00A1
:1008940098428ED975E697FAA7F3626A90E797FAB9
:1008A400A7F3626ACDE7444C636803F00C03082B9A
:1008B4003FF442AE022A4FF0807358D193FAA3F367
:1008C400B3FA83F303F1845303F584139B000022EA
:1008D4001A60FFF7ABFC4FF000778046012697FAC9
:1008E400A7F3226897FAA7F3B3FA83F303F01F037D
:1008F40006FA03F3134233D1E36A6A6A23F00F035F
:100904001343E36262682B6AE96922F476120B43AB
:10091400134363604FF0807393FAA3F3B3FA83F342
:1009240003F1845303F584139B004FF000751E609C
:10093400FFF77CFC0126074695FAA5F3226895FA91
:10094400A5F3B3FA83F303F01F0306FA03F3134288
:100954007FF4CCADFFF76AFCC01B0228ECD910E68B
:10096400FFF764FCA0EB08000228B8D909E693FA63
:10097400A3F3B3FA83F303F1845303F584139B00C5
:1009840000221A60FFF752FC4FF00075074601265B
:1009940095FAA5F3226895FAA5F3B3FA83F303F065
:1009A4001F0306FA03F313423FF4A0ADFFF73EFC26
:1009B400C01B0228ECD9E4E50010024011494B6841
:1009C40003F00C02082A1AD14FF4701292FAA2F220
:1009D4000F20B2FA82F2C96A90FAA0F0B0FA80F05D
:1009E40001F00F0103F47013D340C140064A0748D5
:1009F400415C0748B0FBF1F1D05C484370470448C0
:100A0400704700BF001002404C1100085C11000840
:100A140000127A005C4A136803F007038B422DE945
:100A2400F04106460D4630D3326891073AD4D207D6
:100A340040D4554A136803F007039D42C0F09280E6
:100A44003268524C12F0040F40F09780130706D519
:100A54006368326923F4605343EAC2036360FFF7B7
:100A6400ADFF6368F02292FAA2F2B2FA82F203F0C6
:100A7400F003D340464AD35CD840464B186000206C
:100A8400FFF7A6FB0020BDE8F081136823F00703FD
:100A94000B431360136803F007039942C4D0012089
:100AA400BDE8F0813949B0684B6823F0F003034393
:100AB4004B60BCE77268354C012A28D14FF40033EF
:100AC40093FAA3F1216893FAA3F3B3FA83F303F03F
:100AD4001F0302FA03F30B42E1D0636823F003031C
:100AE4001A436260FFF7A2FB7368012B074641F2C9
:100AF40088381FD1636803F00C03042B99D0FFF7E7
:100B040095FBC01B4045F5D90320BDE8F081022ABE
:100B14000CBF4FF00073022393FAA3F1206893FAF9
:100B2400A3F3B3FA83F303F01F03012101FA03F3E0
:100B34000342D1E7022B10D1636803F00C03082BA6
:100B44003FF477AFFFF772FBC01B4045F4D9DBE7F6
:100B5400FFF76CFBC01B4045D6D8636813F00C0F3D
:100B6400F6D166E7136823F007032B431360136879
:100B740003F007039D4292D162E76368F16823F4AE
:100B8400E0630B43636061E7002002400010024011
:100B94006C11000800000020014B1868704700BF6A
:100BA4000000002003682DE9F347DF03044623D542
:100BB4009B4DEB69DE0000F1D780EB6943F0805375
:100BC400EB61EB6903F080530193019B0126954F80
:100BD4003B68D80540F1CA802B6A13F4407340F097
:100BE400DA802B6A626823F4407313432B621EB1CC
:100BF400EB6923F08053EB612068C30706D5884A6C
:100C0400A168136B23F003030B431363870706D513
:100C1400834AE168136B23F440330B4313634607A1
:100C240006D57F4A2169136B23F440230B431363D6
:100C3400850606D57A4AE169136B23F010030B434A
:100C44001363810306D5764A616D536823F48003E8
:100C54000B435360420606D5714A216A136B23F095
:100C640020030B431363430306D56D4A616A136B78
:100C740023F040030B431363070706D5684A6169F1
:100C8400136B23F440130B431363C60606D5644A5F
:100C9400A169136B23F440030B431363850506D545
:100CA4005F4A216B536823F400030B43536001062E
:100CB40006D55B4AA16AD36A23F4F8730B43D36263
:100CC400C20506D5564AE16AD36A23F478530B4326
:100CD400D362C30406D5524A616B136B23F4807349
:100CE4000B431363870406D54D4A216C136B23F41D
:100CF40000730B431363C60206D5494AA16B136BF9
:100D040023F080730B431363850206D5444AE16BD9
:100D1400136B23F000730B431363410206D5404A5F
:100D2400616C136B23F480630B431363020206D5D7
:100D34003B4AA16C136B23F400630B431363C3019D
:100D440006D5374AE16C136B23F400530B4313634A
:100D540010F000701CD0324A216D136B23F4004351
:100D64000B431363002013E0002630E73B6843F491
:100D740080733B60FFF75AFA80463B68D9053FF51C
:100D84002BAFFFF753FAA0EB08006428F5D9032032
:100D940002B0BDE8F087626802F4407293423FF407
:100DA40020AF296A4FF4803321F4407093FAA3F200
:100DB400DFF874E0B2FA82F27244920001271760FD
:100DC40093FAA3F3B3FA83F373449B0000221A60EB
:100DD400CA0728627FF505AFFFF728FA4FF002082B
:100DE4008246C14698FAA8F398FAA8F3A3B12A6AEE
:100DF40099FAA9F3B3FA83F303F01F0307FA03F391
:100E040013427FF4EEAEFFF711FA41F28833A0EB00
:100E14000A009842E6D9BAE798FAA8F36A6AE7E7BB
:100E240000100240007000400081901030B5A7B05F
:100E3400032306934FF4803307930D934FF48013E9
:100E44000124102202250E9306A8002309940A9275
:100E54000C950F93FFF734FB00B1FEE70F230193CA
:100E640003904FF480630590214601A802950493F2
:100E7400FFF7D0FD00B1FEE7104B109315901690CC
:100E840018904FF480031D9010A82593FFF78AFE55
:100E9400044600B1FEE7FFF77FFE4FF47A73B0FB20
:100EA400F3F0FFF70FFA0420FFF722FA2246214657
:100EB4004FF0FF30FFF7D2F927B030BD58100200D1
:100EC40000B58BB0FFF798F9FFF7B0FF2D4B2E4D0F
:100ED4005A6942F480025A615A6902F4800200920B
:100EE400009A5A6942F400225A615A6902F40022B3
:100EF4000192019A5A6942F480225A615A6902F4B1
:100F040080220292029A5A6942F400325A615A6962
:100F140002F400320392039A5A6942F480125A612D
:100F24005B6903F480130493002246212846049B42
:100F3400FFF7C0FA002240F641411448FFF7BAFA1D
:100F440000244623012605A92846059306960796FC
:100F54000894FFF7DFF940F6414305A90B480593D0
:100F6400069607940894FFF7D5F9022305A90748C4
:100F7400059306940794FFF7CDF94FF6FF736B6161
:100F8400FEE700BF001002400008004800040048CB
:100F94001D4B07B59A6942F001029A619B6903F0FF
:100FA400010301930320019BFFF746F90022114638
:100FB4006FF00B00FFF752F9002211466FF00A00A0
:100FC400FFF74CF9002211466FF00900FFF746F9CC
:100FD400002211466FF00400FFF740F90022114689
:100FE4006FF00300FFF73AF9002211466FF0010099
:100FF400FFF734F9002211464FF0FF30FFF72EF9C6
:1010040003B05DF804FB00BF001002407047FEE728
:10101400FEE7FEE7FEE770477047704708B5FFF745
:10102400FDF8BDE80840FFF770B900001549D1F894
:10103400883043F47003C1F88830134B1A6842F0C7
:1010440001021A605868114A02405A601A6822F074
:10105400847222F480321A601A6822F480221A60A0
:101064005A6822F4FE025A60DA6A22F00F02DA6247
:10107400186B074A02401A6300229A604FF000631B
:101084008B60704700ED00E0001002400CC07FF858
:10109400CCFC00FFDFF834D0002103E00C4B5B589C
:1010A400435004310B480C4B42189A42F6D30B4A76
:1010B40002E0002342F8043B094B9A42F9D3FFF7BC
:1010C400B5FF00F011F8FFF7FBFEFEE7000001207A
:1010D4008411000800000020040000200400002007
:1010E40024000020FEE7000070B50D4E0D4CA41B3B
:1010F400A4100025A54209D10B4E0C4C00F018F8A1
:10110400A41BA4100025A54205D170BD56F82530B6
:1011140098470135EEE756F8253098470135F2E750
:101124007C1100087C1100087C1100088011000863
:10113400F8B500BFF8BC08BC9E467047F8B500BFC0
:08114400F8BC08BC9E46704790
:10114C0002030405060708090A0B0C0D0E0F1010FC
:10115C000102030405060708090A0B0C0D0E0F10FB
:10116C00000000000000000001020304060708094B
:04117C00B9010008AD
:0411800095010008CD
:0411840000127A00DB
:040000050800109946
:00000001FF
